:100000000C94DB000C94F8000C94F8000C94F800AD
:100010000C94F8000C94F8000C94F8000C94F80080
:100020000C94F8000C94F8000C94F8000C94F80070
:100030000C94F8000C94F8000C94F8000C94F80060
:100040000C94F8000C94F8000C94F8000C94F80050
:100050000C94F8000C94F8000C94F8000C94F80040
:100060000C94F8000C94F8000C94F8000C94F80030
:100070000C94F8000C94F8000C94F8000C94F80020
:100080000C94F8000C94F8000C94F8000C94F80010
:100090000C94F8000C94F8000C94F8000C94F80000
:1000A0000C94F8000C94F8000C94F8000C94F800F0
:1000B0000C94F8006E616E00696E660000407A1064
:1000C000F35A00A0724E18090010A5D4E80000E809
:1000D0007648170000E40B54020000CA9A3B000067
:1000E00000E1F505000080969800000040420F00F6
:1000F0000000A08601000000102700000000E803B7
:10010000000000006400000000000A000000000081
:100110000100000000002C76D888DC674F0823DF40
:10012000C1DFAE59E1B1B796E5E3E453C63AE65113
:10013000997696E8E6C28426EB898C9B62ED407C3A
:100140006FFCEFBC9C9F40F2BAA56FA5F490055AD6
:100150002AF75C936B6CF9676DC11BFCE0E40D47FB
:10016000FEF520E6B500D0ED902E0300943577051E
:100170000080841E080000204E0A000000C80C33D6
:100180003333330F986E12831141EF8D2114893B65
:10019000E65516CFFEE6DB18D1844B381BF77C1DE5
:1001A000901DA4BBE424203284725E228100C9F138
:1001B00024ECA1E53D2711241FBECFEFD8E0DEBF20
:1001C000CDBF11E0A0E0B1E0E0EFF3E102C00590A7
:1001D0000D92A833B107D9F721E0A8E3B1E001C03F
:1001E0001D92A234B207E1F70E94FD000C94F609BB
:1001F0000C9400000E9414020895CF93DF93CDB7B2
:10020000DEB7C654D1090FB6F894DEBF0FBECDBF1E
:100210000E94FA002FEF89E698E12150804090403B
:10022000E1F700C0000088E0E0E3F1E0DE011196B4
:1002300001900D928A95E1F786E090E00E94150703
:10024000782E692E1F921F9224E131E03F932F9365
:100250009F938F930E947609ECE7F0E080818260A3
:100260008083E4E6F0E0808180830F900F900F9010
:100270000F900F900F900F2EFAE78F2E912CF02DEC
:100280000F2EF7E12F2EF1E03F2EF02D7E01E9E059
:10029000EE0EF11CCE0101965C019FEFE4E3FCE061
:1002A0009150E040F040E1F700C00000C72CD62C90
:1002B00000E010E007C0F60181916F010E94590231
:1002C0000F5F1F4FA72DB62DFD0101900020E9F70C
:1002D0003197EA1BFB0B0E171F0768F38AE00E9499
:1002E0005902F401808180648083F401808186FD5D
:1002F000FCCFE8E7F0E00081E9E7F0E0808110E082
:10030000182BB80180E090E00E94660223E333E3FB
:1003100043E550E40E94A30220E030E040E85AE3C5
:100320000E94A30226966FAF269727967FAF279746
:10033000582E492E1F930F933F922F92FF92EF92C8
:100340000E94760967010F900F900F900F900F9009
:100350000F9000E010E007C0F60181916F010E944C
:1003600059020F5F1F4FF70101900020E9F7319705
:10037000EE19FF090E171F0778F38AE00E94590251
:100380004F925F922796FFAD2797FF9326962FAD4A
:1003900026972F938AE191E09F938F930E946009A3
:1003A0008AE00E9459028E010F5F1F4F0F900F903D
:1003B0000F900F900F900F90C12CD12C08C0F80116
:1003C00081918F010E945902FFEFCF1ADF0AF501D8
:1003D00001900020E9F73197EA19FB09CE16DF06F4
:1003E00070F38AE00E94590258CFE4E6F0E0808181
:1003F0008E7F808382E480937C0086E880937A00FD
:1004000010927B008CE180937E0080E008954298FA
:10041000439844980E94F501089550985898519A2D
:1004200059980E94420208958DE3809365008FEFF2
:100430008093640094B114B895B185B997B1907860
:1004400097B998B19F6798B99AB11AB89BB18BB90F
:100450008DB1807F8DB98EB18F608EB940E060E83C
:1004600081E690E00E943B0213BE15BE0E94070287
:100470000E940D0208952FB7F894FC016083408319
:100480002FBF0895E4E6F0E080818D7F8083109295
:10049000C5008CE08093C4001092C00088E980936E
:1004A000C10086E091E090933F0180933E0180E09F
:1004B0000895E0ECF0E0908195FFFDCF8093C600B9
:1004C00008950E94590280E090E00895E89409C0E0
:1004D00097FB3EF490958095709561957F4F8F4F77
:1004E0009F4F9923A9F0F92F96E9BB279395F6958D
:1004F000879577956795B795F111F8CFFAF4BB0F0B
:1005000011F460FF1BC06F5F7F4F8F4F9F4F16C06E
:10051000882311F096E911C0772321F09EE8872FF8
:10052000762F05C0662371F096E8862F70E060E0B4
:100530002AF09A95660F771F881FDAF7880F96952D
:10054000879597F908950E94B6020C9427030E949C
:10055000190338F00E94200320F0952311F00C9429
:1005600010030C94160311240C945B030E943803AF
:1005700070F3959FC1F3950F50E0551F629FF001F6
:10058000729FBB27F00DB11D639FAA27F00DB11D0F
:10059000AA1F649F6627B00DA11D661F829F222798
:1005A000B00DA11D621F739FB00DA11D621F839F1F
:1005B000A00D611D221F749F3327A00D611D231FF5
:1005C000849F600D211D822F762F6A2F11249F5743
:1005D00050409AF0F1F088234AF0EE0FFF1FBB1F46
:1005E000661F771F881F91505040A9F79E3F510505
:1005F00080F00C9410030C945B035F3FE4F3983E8F
:10060000D4F3869577956795B795F795E7959F5FAE
:10061000C1F7FE2B880F911D9695879597F9089540
:1006200097F99F6780E870E060E008959FEF80ECA5
:10063000089500240A941616170618060906089548
:1006400000240A9412161306140605060895092EAE
:100650000394000C11F4882352F0BB0F40F4BF2B1D
:1006600011F460FF04C06F5F7F4F8F4F9F4F08955D
:1006700057FD9058440F551F59F05F3F71F0479553
:10068000880F97FB991F61F09F3F79F08795089538
:10069000121613061406551FF2CF4695F1DF08C057
:1006A000161617061806991FF1CF86957105610574
:1006B00008940895E894BB2766277727CB0197F91C
:1006C0000895A0E1B0E0E7E6F3E00C94DE067C01DB
:1006D0001B016A01FC0117821682838181FF44C3DA
:1006E0009E012F5F3F4F3901F7019381F10193FD87
:1006F000859193FF81911F01882309F431C38532CD
:1007000039F493FD859193FF81911F01853239F46E
:10071000B70190E00E94240956016501E5CF10E081
:10072000512C912CFFE1F915D8F08B3279F038F487
:10073000803279F08332A1F4F92DF0612EC08D3230
:1007400061F0803369F4292D21602DC0392D32608C
:10075000932E892D8460982E2AC0E92DE86015C05B
:1007600097FC2DC020ED280F2A3088F496FE06C095
:100770003AE0139F200D1124122F19C08AE0589ED1
:10078000200D1124522EE92DE0629E2E10C08E32D3
:1007900031F496FCE5C2F92DF0649F2E08C08C362A
:1007A00021F4292D2068922E02C0883641F4F101EF
:1007B00093FD859193FF81911F018111B3CF9BEB35
:1007C000980F933020F4992D9061805E07C09BE9CB
:1007D000980F933008F066C1992D9F7E96FF16E022
:1007E0009F73992E853619F49064992E08C0863629
:1007F00021F4392F3068932E02C01111115097FE49
:1008000007C01C3350F444244394410E27E00BC02E
:10081000183038F027E017E005C027E09CE3492EA8
:1008200002C0212F412C560184E0A80EB11CF60114
:100830006081718182819381042DA3010E94360819
:100840006C01F981FC87F0FF02C0F3FF06C091FC48
:1008500006C092FE06C000E205C00DE203C00BE236
:1008600001C000E08C858C7019F001115AC29BC246
:1008700097FE10C04C0CFC85F4FF04C08A818133C4
:1008800009F44A94141474F528E0241578F588E0E6
:10089000482E2CC096FC2AC0812F90E08C159D0517
:1008A0009CF03CEFC3163FEFD30674F0892D8068AF
:1008B000982E0AC0E2E0F0E0EC0FFD1FE10FF11D01
:1008C0008081803319F411501111F4CF97FE0EC0BE
:1008D00044244394410E812F90E0C816D9062CF48D
:1008E0001C1904C04424439401C010E097FE06C0C4
:1008F0001C141D0434F4C601019605C085E090E087
:1009000002C081E090E001110196112331F0212F06
:1009100030E02F5F3F4F820F931F252D30E082176D
:10092000930714F4581A01C0512C892D897049F489
:10093000552039F0B70180E290E00E9424095A94D2
:10094000F7CF002329F0B701802F90E00E942409FF
:1009500093FC09C0552039F0B70180E390E00E9474
:1009600024095A94F7CF97FE4CC04601D7FE02C027
:10097000812C912CC60188199909F301E80FF91F00
:10098000FE87ED87960124193109388B2F87012FB7
:1009900010E01195019511093FEF8316930629F494
:1009A000B7018EE290E00E942409C814D9044CF0EB
:1009B0008F8598898815990524F4ED85FE858181B8
:1009C00001C080E3F1E08F1A91082D853E852F5FED
:1009D0003F4F3E872D87801691062CF0B70190E09F
:1009E0000E942409D9CFC814D90441F49A819633BE
:1009F00020F4953319F43C8534FF81E3B70190E08E
:100A00004EC08A81813319F09C859F7E9C87B701F7
:100A100090E00E942409111105C094FC18C085E6DD
:100A200090E017C0B7018EE290E00E9424091E5F9B
:100A300082E001E0080FF301E80FF11D8081B701AA
:100A400090E00E942409802F0113F3CFE6CF85E4C4
:100A500090E0B7010E942409D7FC06C0C114D1045C
:100A600041F4EC85E4FF05C0D194C194D1088DE236
:100A700001C08BE2B70190E00E94240980E32AE0E4
:100A8000C216D1042CF08F5FFAE0CF1AD108F7CF4D
:100A9000B70190E00E942409B701C601C0960E94E8
:100AA000240954C1833631F0833779F0833509F056
:100AB00056C020C0560132E0A30EB11CF601808161
:100AC000898301E010E0630112C05601F2E0AF0E2D
:100AD000B11CF601C080D18096FE03C0612F70E08A
:100AE00002C06FEF7FEFC6010E9419098C01F92D3A
:100AF000FF7714C0560122E0A20EB11CF601C0809F
:100B0000D18096FE03C0612F70E002C06FEF7FEFCF
:100B1000C6010E940E098C01F92DF0689F2EF3FD8D
:100B20001AC0852D90E008171907A8F4B70180E2D4
:100B300090E00E9424095A94F4CFF60197FC859125
:100B400097FE81916F01B70190E00E942409511036
:100B50005A94015011090115110579F7F7C084362F
:100B600011F0893661F5560197FE09C024E0A20E06
:100B7000B11CF60160817181828193810AC0F2E02B
:100B8000AF0EB11CF60160817181072E000C880B3D
:100B9000990BF92DFF769F2E97FF09C090958095B0
:100BA000709561957F4F8F4F9F4FF0689F2E2AE081
:100BB00030E0A3010E949809C82EC6183FC0092D35
:100BC000853721F40F7E2AE030E01DC0097F8F3683
:100BD00091F018F4883559F0C3C0803719F0883780
:100BE00011F0BEC0006104FF09C0046007C094FE9C
:100BF00008C0066006C028E030E005C020E130E013
:100C000002C020E132E0560107FF09C084E0A80ECF
:100C1000B11CF601608171818281938108C0F2E08C
:100C2000AF0EB11CF6016081718180E090E0A301FC
:100C30000E949809C82EC6180F77902E96FE0BC0FA
:100C4000092D0E7FC11650F494FE0AC092FC08C014
:100C5000092D0E7E05C0DC2C092D03C0DC2C01C043
:100C6000D12E04FF0DC0FE01EC0DF11D80818033FB
:100C700011F4097E09C002FF06C0D394D39404C0C6
:100C8000802F867809F0D39403FD11C000FF06C0C1
:100C90001C2DD51480F4150D1D190DC0D51458F454
:100CA000B70180E290E00E942409D394F7CFD514D5
:100CB00010F45D1801C0512C04FF10C0B70180E38F
:100CC00090E00E94240902FF17C001FD03C088E7DD
:100CD00090E002C088E590E0B7010CC0802F8678D4
:100CE00059F001FF02C08BE201C080E207FD8DE2F6
:100CF000B70190E00E942409C11638F4B70180E3DF
:100D000090E00E9424091150F7CFCA94F301EC0D32
:100D1000F11D8081B70190E00E942409C110F5CF38
:100D200015C0F4E0F51560F584E0581A93FE1FC075
:100D3000011127C02C8523FF2AC004EB10E0392DB8
:100D40003071932EF8018491811124C0552009F44B
:100D5000E4CCB70180E290E00E9424095A94F6CFD7
:100D6000F7018681978126C08FEF9FEF23C0B701DF
:100D700080E290E00E9424095A945110F8CFD8CF15
:100D8000512CB701802F90E00E942409D3CF08EBAB
:100D900010E0D5CF91108052B70190E00E94240955
:100DA0000F5F1F4FCFCF23E0251510F483E0BDCF99
:100DB000512CC0CF6096E2E10C94FA062F923F923C
:100DC0004F925F926F927F928F929F92AF92BF925B
:100DD000CF92DF92EF92FF920F931F93CF93DF9307
:100DE000CDB7DEB7CA1BDB0B0FB6F894DEBF0FBE64
:100DF000CDBF09942A88398848885F846E847D84B1
:100E00008C849B84AA84B984C884DF80EE80FD80B2
:100E10000C811B81AA81B981CE0FD11D0FB6F89428
:100E2000DEBF0FBECDBFED0108950F931F93CF938B
:100E3000DF938230910510F482E090E0E0913A0176
:100E4000F0913B0120E030E0A0E0B0E0309719F1F4
:100E5000408151810281138148175907C8F08417D6
:100E6000950769F4109731F012960C931297139628
:100E70001C9327C000933A0110933B0122C0211517
:100E8000310519F04217530718F49A01BD01EF011B
:100E9000DF01F801DBCF21153105F9F0281B390BF3
:100EA0002430310580F48A819B816115710521F020
:100EB000FB019383828304C090933B0180933A01AA
:100EC000FE01329644C0FE01E20FF31F819391931D
:100ED00022503109398328833AC02091380130915A
:100EE0003901232B41F42091020130910301309309
:100EF0003901209338012091000130910101211521
:100F0000310541F42DB73EB74091040150910501E0
:100F1000241B350BE0913801F0913901E217F307FA
:100F2000A0F42E1B3F0B2817390778F0AC014E5F59
:100F30005F4F2417350748F04E0F5F1F509339015C
:100F4000409338018193919302C0E0E0F0E0CF013B
:100F5000DF91CF911F910F910895CF93DF93009769
:100F600009F481C0FC01329713821282A0913A01E8
:100F7000B0913B01109781F420813181820F931F42
:100F800020913801309139012817390751F5F09334
:100F90003901E093380167C0ED0120E030E0CE1761
:100FA000DF0740F44A815B819E0141155105F1F054
:100FB000EA01F5CFD383C28340815181840F951F0D
:100FC000C817D90759F488819981840F951F029613
:100FD000918380838A819B8193838283211531054C
:100FE00029F4F0933B01E0933A013DC0E901FB8312
:100FF000EA8349915991C40FD51FEC17FD0761F49D
:1010000080819181840F951F0296E90199838883DD
:10101000828193819B838A83E0E0F0E012968D9138
:101020009C911397009719F0FD01DC01F7CF8D918A
:101030009C9111979D012E5F3F4F820F931F20912E
:101040003801309139012817390769F4309729F4AC
:1010500010923B0110923A0102C013821282B093A7
:101060003901A0933801DF91CF910895283008F01D
:1010700027E03327DA01990F311D87FD9160009633
:101080006105710539F432602E5F3D9330E32A9596
:10109000E1F708959F3F30F080387105610509F050
:1010A0003C5F3C5F3D93913008F08068911DDF9379
:1010B000CF931F930F93FF92EF92192F987F9695DE
:1010C000E92F96959695E90FFF27EA5EFE4F99273F
:1010D0003327EE24FF24A701E70105900894079425
:1010E00028F4360FE71EF81E491F511D660F771FA3
:1010F000881F991F0694A1F70590079428F4E70E1E
:10110000F81E491F561FC11D770F881F991F661FA4
:101110000694A1F70590079428F4F80E491F561F6E
:10112000C71FD11D880F991F661F771F0694A1F74F
:101130000590079420F4490F561FC71FD81F990F19
:10114000661F771F881F0694A9F784911095177062
:1011500041F0D695C79557954795F794E7941A951A
:10116000C1F7ECEBF0E0689415901591359165911D
:10117000959105907FE27395E118F10A430B560BA8
:10118000C90BD009C0F7E10CF11E431F561FC91F40
:10119000D01D7EF4703311F48A95E6CFE8940150A7
:1011A00030F0080F0AF40027021708F4202F2395C7
:1011B000022F7A3328F079E37D932A95E9F710C05E
:1011C0007D932A9589F60694979567953795179597
:1011D0001794E118F10A430B560BC90BD00998F08C
:1011E00023957E9173957A3308F070E37C932013F6
:1011F000B8F77E9170617D9330F0839571E37D93B4
:1012000070E32A95E1F71124EF90FF900F911F9161
:10121000CF91DF91992787FD90950895FC01059066
:10122000615070400110D8F7809590958E0F9F1FE8
:101230000895FC016150704001900110D8F780952D
:1012400090958E0F9F1F08950F931F93CF93DF9359
:10125000FB01238121FD03C08FEF9FEF2CC022FFF4
:1012600016C046815781248135814217530744F4C3
:10127000A081B1819D012F5F3F4F318320838C93EB
:10128000268137812F5F3F4F3783268314C08B0120
:10129000EC01FB010084F185E02D0995892BE1F635
:1012A000D80116968D919C911797019617969C934D
:1012B0008E931697CE01DF91CF911F910F910895D4
:1012C000A0E0B0E0E6E6F9E00C94EE06AE014B5F7C
:1012D0005F4FFA0161917191AF0180913E01909150
:1012E0003F010E946103E2E00C940A07AEE0B0E027
:1012F000ECE7F9E00C94EC060D891E8986E08C83FE
:101300001A8309838FEF9FE79E838D83AE01475E2B
:101310005F4F6F89788DCE0101960E946103EF8146
:10132000F885E00FF11F10822E96E4E00C94080778
:10133000FA01AA27283051F1203181F1E8946F9306
:101340006E7F6E5F7F4F8F4F9F4FAF4FB1E03ED0AC
:10135000B4E03CD0670F781F891F9A1FA11D680F4A
:10136000791F8A1F911DA11D6A0F711D811D911D7D
:10137000A11D20D009F468943F912AE0269F1124F2
:101380003019305D3193DEF6CF010895462F477056
:10139000405D4193B3E00FD0C9F7F6CF462F4F70B1
:1013A000405D4A3318F0495D31FD4052419302D00F
:1013B000A9F7EACFB4E0A6959795879577956795B5
:1013C000BA95C9F700976105710508959B01AC01B5
:1013D0000A2E06945795479537952795BA95C9F7DC
:1013E000620F731F841F951FA01D0895F894FFCFEF
:1013F0000000420120000000000200000000610225
:1014000000000000257500256400566F6C7461674C
:101410006520496E707574203D2025302E3466009D
:0814200054657374696E6700E6
:00000001FF
