:100000000C945A000C9477000C9477000C947700B1
:100010000C9477000C9477000C9477000C94770084
:100020000C9477000C9477000C9477000C94770074
:100030000C9477000C9477000C9477000C94770064
:100040000C9477000C9477000C9477000C94770054
:100050000C9477000C9477000C9477000C94770044
:100060000C9477000C9477000C9477000C94770034
:100070000C9477000C9477000C9477000C94770024
:100080000C9477000C9477000C9477000C94770014
:100090000C9477000C9477000C9477000C94770004
:1000A0000C9477000C9477000C9477000C947700F4
:1000B0000C94770011241FBECFEFD8E0DEBFCDBF78
:1000C00011E0A0E0B1E0ECE6F4E002C005900D9292
:1000D000AE35B107D9F721E0AEE5B1E001C01D9220
:1000E000A436B207E1F70E94F8000C9434020C9495
:1000F00000000E94CA010895EF92FF920F931F9390
:10010000CF93DF938C017C01C0E0D0E006C0F70103
:1001100081917F010E9418022196F8010190002030
:10012000E9F73197E01BF10BCE17DF0780F3DF9182
:10013000CF911F910F91FF90EF900895EF92FF9252
:100140000F931F93CF93DF938C017C01C0E0D0E02D
:1001500006C0F70181917F010E9418022196F801E3
:1001600001900020E9F73197E01BF10BCE17DF0774
:1001700080F38AE00E941802DF91CF911F910F91C6
:10018000FF90EF900895EF92FF920F931F938217C5
:10019000930748F460177107C0F44E155F05C0F06F
:1001A00083E591E020C06017710730F44E155F05BC
:1001B00090F489E491E017C04E155F0578F0601760
:1001C000710778F08AE391E00EC088E591E00BC0FA
:1001D00084E491E008C08FE391E005C08EE491E0F3
:1001E00002C08FE391E01F910F91FF90EF9008956F
:1001F000CF93DF9300D000D01F92CDB7DEB70E941F
:100200007900389A85E0E5E3F1E0DE01119601908E
:100210000D928A95E1F78EE091E00E947C00409A71
:10022000F12C20E030E0E0E0F0E000E010E00F2E04
:10023000FCE78F2E912CF02D0F2EF6E47F2EF02D63
:100240000F2EFAE7CF2ED12CF02D0F2EF8E7AF2E80
:10025000B12CF02D0F2EF7E46F2EF02D0F2EF5E4BC
:100260005F2EF02DD4017C92D6018C9180648C930A
:10027000D6018C9186FDFCCFD5016D917C91D40186
:100280006C92D6018C9180648C93D6018C9186FD02
:10029000FCCFD5014D915C91D4015C92D6018C913B
:1002A00080648C93D6018C9186FDFCCFD5018D9115
:1002B0009C91B3E1BF1540F0060F171FE40FF51F27
:1002C000280F391FF394CECFADECBCEC0E94250271
:1002D000AC01529542954F7045275F7045279F01AD
:1002E0000E942502FC01F295E295EF70EF27FF7066
:1002F000EF2798010E9425020F2EFCE2EF2EFF242B
:10030000F394F02D0CE211E02CE231E0BF01929564
:1003100082958F7089279F7089270E94C300FC01F6
:1003200095E0DE01119601900D929A95E1F78AE130
:1003300091E00E949E00CE0101960E947C008AE11D
:1003400091E00E949E00F12C20E030E0E0E0F0E03F
:1003500000E010E087CFE4E6F0E080818E7F8083CC
:1003600086E480937C0081E880937A0010927B0081
:1003700080E280937E0080E008954598729873989B
:100380000E94AB01089550985898519A59980E942C
:10039000010208958DE3809365008FEF80936400E0
:1003A00094B114B895B185B997B1907897B998B1CF
:1003B0009F6798B99AB11AB89BB18BB98DB1807FFC
:1003C0008DB98EB18F608EB940E060E881E690E033
:1003D0000E94F30113BE15BE0E94BD010E94FA01E6
:1003E0000E94C30108952FB7F894FC0160834083F5
:1003F0002FBF0895E4E6F0E08081877F808380E06E
:100400000895E4E6F0E080818D7F80831092C5003E
:1004100083E38093C4001092C00088E98093C100F8
:1004200080E091E0909361018093600180E0089505
:10043000E0ECF0E0908195FFFDCF8093C600089539
:100440000E94180280E090E00895A29FB001B39F3F
:10045000C001A39F700D811D1124911DB29F700DCD
:0C046000811D1124911D0895F894FFCF18
:10046C000000000200000000200200000000537495
:10047C00617274696E672E2E2E002D2D2D2D2D2D53
:10048C002D2D2D2D2D2D2D2D2D2D2D2D2D2D2D2D90
:10049C002D2D2D2D007330306500733032650073B7
:1004AC00313465007331386500733139650073314F
:0E04BC00316500733141650073313265000017
:00000001FF
