:100000000C945A000C9477000C9477000C947C00AC
:100010000C9477000C9477000C9477000C94770084
:100020000C9477000C9477000C9477000C94770074
:100030000C9477000C941E010C9477000C947700BC
:100040000C9477000C9477000C9477000C94770054
:100050000C9477000C9477000C9477000C94770044
:100060000C9477000C9477000C9477000C94770034
:100070000C9477000C9477000C9477000C94770024
:100080000C9477000C9477000C9477000C94770014
:100090000C9477000C9477000C9477000C94770004
:1000A0000C9477000C9477000C9477000C947700F4
:1000B0000C94770011241FBECFEFD8E0DEBFCDBF78
:1000C00011E0A0E0B1E0ECEAF2E002C005900D9290
:1000D000A031B107D9F721E0A0E1B1E001C01D9244
:1000E000A831B207E1F70E9494000C9454010C94DB
:1000F00000000E94C20008951F920F920FB60F9247
:1001000011248F9380911001811105C0409A81E0E4
:100110008093100103C04098109210018F910F90AE
:100120000FBE0F901F9018950E9479000E940E013B
:1001300080910001909101010E94190180E090E0FE
:100140000E941401FFCFE4E6F0E080818E7F80837F
:1001500010927C0081E880937A0010927B0080E00E
:100160000895209828980E94ED000895229A2A98D0
:100170000E94FB00089550985898519A59980E94EF
:10018000300108958DE3809365008FEF80936400C4
:1001900094B114B895B185B997B1907897B998B1E1
:1001A0009F6798B99AB11AB89BB18BB98DB1807F0E
:1001B0008DB98EB18F608EB940E060E881E690E045
:1001C0000E94F40013BE15BE0E94B1000E94A3005D
:1001D0000E94B6000E94BB00089581E080936800F1
:1001E00080936B0080E008952FB7F894FC01608342
:1001F00040832FBF0895E4E6F0E08081877F80830D
:1002000083E28093800081E1809381008FEF90E012
:10021000909389008093880080E00895E0E8F0E002
:10022000808180628083089590938500809384000C
:10023000089590938B0080938A0008951F920F92E7
:100240000FB60F9211248F9316BA809111018F5F10
:10025000809311018F910F900FBE0F901F901895F2
:10026000E4E6F0E080818D7F80831092C50083E317
:100270008093C4001092C00088E98093C10082E09E
:1002800091E0909315018093140180E00895E0ECD3
:10029000F0E0908195FFFDCF8093C60008950E9405
:0C02A000470180E090E00895F894FFCF43
:1002AC003F0000000002000000004F0100000000B1
:00000001FF
