S0150000476C6F76652050726F6A6563742E737265631B
S11300000C945A000C9477000C9477000C947700AD
S11300100C9477000C9477000C9477000C94770080
S11300200C9477000C9477000C9477000C94770070
S11300300C9477000C9477000C9477000C94770060
S11300400C9477000C9477000C9477000C94770050
S11300500C9477000C9477000C9477000C94770040
S11300600C9477000C9477000C9477000C94770030
S11300700C9477000C9477000C9477000C94770020
S11300800C9477000C9477000C9477000C94770010
S11300900C9477000C9477000C9477000C94770000
S11300A00C9477000C9477000C9477000C947700F0
S11300B00C94770011241FBECFEFD8E0DEBFCDBF74
S11300C011E0A0E0B1E0EAE0F4E002C005900D9296
S11300D0A633B107D9F721E0A6E3B1E001C01D9230
S11300E0AC33B207E1F70E94D3000C9403020C94E2
S11300F000000E9499010895EF92FF920F931F93BD
S1130100CF93DF938C017C01C0E0D0E006C0F701FF
S113011081917F010E94E7012196F801019000205E
S1130120E9F73197E01BF10BCE17DF0780F3DF917E
S1130130CF911F910F91FF90EF900895EF92FF924E
S11301400F931F938217930748F460177107C0F445
S11301504E155F05C0F08CE291E020C06017710776
S113016030F44E155F0590F482E291E017C04E150D
S11301705F0578F06017710778F083E191E00EC0B5
S113018081E391E00BC08DE191E008C088E191E04A
S113019005C087E291E002C088E191E01F910F91D0
S11301A0FF90EF900895CF93DF9300D000D01F927B
S11301B0CDB7DEB70E947900389A85E0EEE0F1E031
S11301C0DE01119601900D928A95E1F7409AF12C87
S11301D020E030E0E0E0F0E000E010E00F2EFCE78B
S11301E08F2E912CF02D0F2EF2E47F2EF02D0F2E5A
S11301F0FAE7CF2ED12CF02D0F2EF8E7AF2EB12C2D
S1130200F02D0F2EF3E46F2EF02D0F2EF4E45F2E5D
S1130210F02DD4017C92D6018C9180648C93D6010C
S11302208C9186FDFCCFD5016D917C91D4016C92AB
S1130230D6018C9180648C93D6018C9186FDFCCF81
S1130240D5014D915C91D4015C92D6018C9180646E
S11302508C93D6018C9186FDFCCFD5018D919C9118
S1130260B3E1BF1540F0060F171FE40FF51F280F69
S1130270391FF394CECFADECBCEC0E94F401AC0179
S1130280529542954F7045275F7045279F010E9404
S1130290F401FC01F295E295EF70EF27FF70EF2770
S11302A098010E94F4010F2EFCE2EF2EFF24F39438
S11302B0F02D0CE211E02CE231E0BF019295829521
S11302C08F7089279F7089270E949E00FC0195E00A
S11302D0DE01119601900D929A95E1F7CE010196F7
S11302E00E947C00F12C20E030E0E0E0F0E000E04F
S11302F010E08FCFE4E6F0E080818E7F808380E49D
S113030080937C0081E880937A0010927B008CE1DA
S113031080937E0080E008954298439844980E9418
S11303207A01089550985898519A59980E94D0018A
S113033008958DE3809365008FEF8093640094B1FA
S113034014B895B185B997B1907897B998B19F676A
S113035098B99AB11AB89BB18BB98DB1807F8DB918
S11303608EB18F608EB940E060E881E690E00E9433
S1130370C20113BE15BE0E948C010E94C9010E94D5
S1130380920108952FB7F894FC01608340832FBF36
S11303900895E4E6F0E08081877F808380E008951B
S11303A0E4E6F0E080818D7F80831092C5008CE0CC
S11303B08093C4001092C00088E98093C10080E05B
S11303C091E0909339018093380180E00895E0EC46
S11303D0F0E0908195FFFDCF8093C60008950E94C0
S11303E0E70180E090E00895A29FB001B39FC001AF
S11303F0A39F700D811D1124911DB29F700D811D4D
S10D04001124911D0895F894FFCF14
S113040A0000000200000000EF0100000000733049
S113041A30650073303265007331346500733138E6
S113042A6500733139650073313165007331416593
S109043A0073313265007D
S9030000FC
