S0150000476C6F76652050726F6A6563742E737265631B
S11300000C945A000C9477000C9477000C947C00A8
S11300100C9477000C9428010C9477000C947700CE
S11300200C9477000C9477000C9477000C94770070
S11300300C9477000C9477000C943D010C94770099
S11300400C9477000C9477000C9477000C94770050
S11300500C9477000C9477000C9477000C94770040
S11300600C9477000C9477000C9477000C94770030
S11300700C9477000C9477000C9477000C94770020
S11300800C9477000C9477000C9477000C94770010
S11300900C9477000C9477000C9477000C94770000
S11300A00C9477000C9477000C9477000C947700F0
S11300B00C94770011241FBECFEFD8E0DEBFCDBF74
S11300C011E0A0E0B1E0E8EDF4E002C005900D928B
S11300D0AC33B107D9F721E0ACE3B1E001C01D9224
S11300E0A734B207E1F70E94A8000C946A020C94AA
S11300F000000E94D60108951F920F920FB60F922E
S113010011240F900FBE0F901F901895EF92FF923D
S11301100F931F93CF93DF938C017C01C0E0D0E059
S113012006C0F70181917F010E942D022196F801FA
S113013001900020E9F73197E01BF10BCE17DF07A0
S113014080F3DF91CF911F910F91FF90EF9008956D
S1130150CF93DF9300D000D01F92CDB7DEB70E94BB
S1130160790085E0EAE1F1E0DE01119601900D925B
S11301708A95E1F78EE091E00E94860001E010E0AC
S11301806894EE24E4F8F12C85E00E94B5010E9405
S1130190C30186E00E94B5010E94C30187E00E946A
S11301A0B5010E94C30180913E0190913F018130CD
S11301B0910579F18031910509F441C0892B21F72A
S11301C080913C0190913D018130910549F4F09278
S11301D03F01E0923E0110923D0110923C01D4CFC8
S11301E0029749F410933F0100933E0110923D01A0
S11301F010923C01C9CF85E0EAE1F1E0DE011196FD
S113020001900D928A95E1F7CE0101960E94860035
S1130210BBCF10923F0110923E0110923D0110920B
S11302203C0185E0EFE1F1E0DE01119601900D92D1
S11302308A95E1F7CE0101960E948600A5CF10921F
S11302403F0110923E0110923D0110923C019CCF5F
S11302501F920F920FB60F9211248F93EF93FF9377
S1130260EEE6F0E0808182608083FF91EF918F91D0
S11302700F900FBE0F901F9018951F920F920FB6FC
S11302800F9211242F933F934F935F936F937F9318
S11302908F939F93AF93BF93EF93FF93809140010C
S11302A08F5F80934001809140018D3328F14A99FA
S11302B012C084E291E00E943A0282E090E09093BE
S11302C03D0180933C01EEE6F0E080818D7F8083E8
S11302D01092400111C08FE291E00E943A0281E045
S11302E090E090933D0180933C01EEE6F0E0808144
S11302F08D7F808310924001FF91EF91BF91AF9168
S11303009F918F917F916F915F914F913F912F9129
S11303100F900FBE0F901F901895E4E6F0E08081D7
S11303208E7F808310927C0081E880937A00109203
S11303307B0080E00895ECE7F0E09081907F90836B
S11303409081892B8083EAE7F0E080818064808358
S1130350089580917A008295817008958091780043
S11303602091790090E0922B08950E949B010E94B5
S1130370A9018823E1F30E94AE01EAE7F0E02081BD
S11303802061208308958AE00895209828980E9487
S113039001020895729873980E948D0108955098EF
S11303A05898519A59980E94160208958DE38093A3
S11303B065008FEF8093640094B114B895B185B94A
S11303C097B1907897B998B19F6798B99AB11AB8CC
S11303D09BB18BB98DB1807F8DB98EB18F608EB991
S11303E040E060E881E690E00E94080213BE15BE7A
S11303F00E94C5010E94CA010E940F020E94CF01FF
S1130400089581E08093680080936B0080E00895F4
S11304102FB7F894FC01608340832FBF0895E4E66E
S1130420F0E08081877F808380E00895E4E6F0E057
S113043080818D7F80831092C50083E38093C40004
S11304401092C00088E98093C10080E091E090930D
S113045044018093430180E00895E0ECF0E0908152
S113046095FFFDCF8093C60008950E942D0280E081
S113047090E008950F931F93CF93DF93E09143018E
S1130480F0914401238121FF1BC08C01D0E0C0E026
S1130490F80181918F016091430170914401DB0166
S11304A01896ED91FC911997882331F00995892BC1
S11304B079F3DFEFCFEFECCF8AE00995892B19F0C0
S11304C08FEF9FEF02C08D2F9C2FDF91CF911F9153
S10B04D00F910895F894FFCF89
S11304D80000000200000000350200000000537410
S11304E8617274696E672E2E2E0073303065007346
S11304F8303265004C6F6E67205072657373005319
S10F0508686F72742050726573730000F9
S9030000FC
