S0150000476C6F76652050726F6A6563742E737265631B
S11300000C945A000C9477000C9477000C947700AD
S11300100C9477000C9477000C9477000C94770080
S11300200C9477000C9477000C9477000C94770070
S11300300C9477000C9477000C9477000C94770060
S11300400C9477000C9477000C9477000C94770050
S11300500C9477000C9477000C9477000C94770040
S11300600C9477000C9477000C9477000C94770030
S11300700C9477000C9477000C9477000C94770020
S11300800C9477000C9477000C9477000C94770010
S11300900C9477000C9477000C9477000C94770000
S11300A00C9477000C9477000C9477000C947700F0
S11300B00C94770011241FBECFEFD8E0DEBFCDBF74
S11300C011E0A0E0B1E0E6ECFAE002C005900D9288
S11300D0A638B107D9F721E0A6E8B1E001C01D9226
S11300E0AC38B207E1F70E94F8000C9461050C9457
S11300F000000E940D020895EF92FF920F931F9348
S1130100CF93DF938C017C01C0E0D0E006C0F701FF
S113011081917F010E945B022196F80101900020E9
S1130120E9F73197E01BF10BCE17DF0780F3DF917E
S1130130CF911F910F91FF90EF900895EF92FF924E
S11301400F931F93CF93DF938C017C01C0E0D0E029
S113015006C0F70181917F010E945B022196F8019C
S113016001900020E9F73197E01BF10BCE17DF0770
S113017080F38AE00E945B02DF91CF911F910F917F
S1130180FF90EF900895EF92FF920F931F938217C1
S1130190930748F460177107C0F44E155F05C0F06B
S11301A08CE791E020C06017710730F44E155F05AD
S11301B090F482E791E017C04E155F0578F0601760
S11301C0710778F083E691E00EC081E891E00BC0FE
S11301D08DE691E008C088E691E005C087E791E0EC
S11301E002C088E691E01F910F91FF90EF9008956F
S11301F0CF93DF93CDB7DEB72A970FB6F894DEBF5F
S11302000FBECDBF0E947900389A85E0EEE5F1E09B
S1130210DE01119601900D928A95E1F71E828EE01F
S113022091E00E947C00409AE0E0E12CF12C00E097
S113023010E020E030E00F2EFCE78F2E912CF02D03
S11302400F2EFAE7CF2ED12CF02D0F2EF8E7AF2E7C
S1130250B12CF02D0F2EFAE16F2EF1E07F2EF02D50
S11302602E0186E0480E511C82E4D4018C93D60101
S11302708C9180648C93D6018C9186FDFCCFD50142
S11302806D917C9183E4D4018C93D6018C9180642C
S11302908C93D6018C9186FDFCCFD5014D915C9158
S11302A084E4D4018C93D6018C9180648C93D60120
S11302B08C9186FDFCCFD5018D919C91E43140F465
S11302C0260F371F040F151FE80EF91EEF5FCCCF62
S11302D0ADECBCEC0E9468021C0136942794369461
S11302E0279436942794369427943F922F927F92A2
S11302F06F925F924F920E9477028DE191E00E948B
S11303007C00C2010E949E009801ADECBCEC0E94EE
S11303106802929582958F7089279F7089279887A4
S11303208F839F938F937F926F925F924F920E94DD
S1130330770289E291E00E947C00C2010E949E0043
S11303409701ADECBCEC0E946802929582958F7087
S113035089279F7089279A8789879F938F937F9294
S11303606F925F924F920E94770287E391E00E941E
S11303707C00C2010E949E000F2EFCE2EF2EFF249F
S1130380F394F02D0CE211E02CE231E049855A851A
S11303906F817885C1010E94C300FC0195E0DE01F4
S11303A0119601900D929A95E1F783E491E00E94F1
S11303B09E00CE0101960E947C0083E491E00E949D
S11303C09E000FB6F894DEBF0FBECDBFE0E0E12C77
S11303D0F12C00E010E020E030E046CFE4E6F0E06D
S11303E080818E7F808380E480937C0081E8809389
S11303F07A0010927B008CE180937E0080E0089567
S11304004298439844980E94EE0108955098589851
S1130410519A59980E94440208958DE3809365008F
S11304208FEF8093640094B114B895B185B997B1F6
S1130430907897B998B19F6798B99AB11AB89BB157
S11304408BB98DB1807F8DB98EB18F608EB940E04C
S113045060E881E690E00E94360213BE15BE0E9459
S113046000020E943D020E94060208952FB7F894EC
S1130470FC01608340832FBF0895E4E6F0E08081AF
S1130480877F808380E00895E4E6F0E080818D7FBB
S113049080831092C5008CE08093C4001092C00049
S11304A088E98093C10080E091E090938901809372
S11304B0880180E00895E0ECF0E0908195FFFDCFA5
S11304C08093C60008950E945B0280E090E0089546
S11304D0A29FB001B39FC001A39F700D811D112481
S11304E0911DB29F700D811D1124911D0895AEE0E0
S11304F0B0E0EDE7F2E00C9438050D891E8986E042
S11305008C831A8309838FEF9FE79E838D83AE01CB
S1130510475E5F4F6F89788DCE0101960E949902E4
S1130520EF81F885E00FF11F10822E96E4E00C9421
S11305305405ABE0B0E0EFE9F2E00C942A056C015D
S11305407B018A01FC0117821682838181FFCCC161
S1130550CE0101963C01F6019381F70193FD85914B
S113056093FF81917F01882309F4BAC1853239F45C
S113057093FD859193FF81917F01853229F4B60122
S113058090E00E949004E7CF912C212C312CFFE1C4
S1130590F315D8F08B3279F038F4803279F0833265
S11305A0A1F4232D20611DC08D3261F0803369F4E4
S11305B0232D216016C0832D8260382EE32DE46044
S11305C03E2E2AC0F32DF8601DC037FC2DC020ED4F
S11305D0280F2A3040F08E32B9F436FC81C1232D25
S11305E02064322E19C036FE06C08AE0989E200D83
S11305F01124922E11C0EAE02E9E200D1124222EE9
S1130600F32DF0623F2E08C08C3621F4832D8068D0
S1130610382E02C0883641F4F70193FD859193FF8B
S113062081917F018111B3CF982F9F7D9554933091
S113063028F40C5F1F4F9FE399830DC0833631F07C
S1130640833771F0833509F059C021C0F8018081E6
S113065089830E5F1F4F88248394912C530113C008
S11306602801F2E04F0E511CF801A080B18036FE43
S113067003C0692D70E002C06FEF7FEFC5010E94D7
S113068085044C018201F32DFF773F2E16C028010B
S113069022E0420E511CF801A080B18036FE03C056
S11306A0692D70E002C06FEF7FEFC5010E947A04EC
S11306B04C01F32DF0683F2E820133FC1BC0822DC8
S11306C090E088169906B0F4B60180E290E00E94AA
S11306D090042A94F4CFF50137FC859137FE81917B
S11306E05F01B60190E00E94900421102A9421E059
S11306F0821A91088114910471F7E8C0843611F0CC
S1130700893641F5F80137FE07C060817181828125
S113071093810C5F1F4F08C060817181072E000C0C
S1130720880B990B0E5F1F4FF32DFF763F2E97FF1B
S113073009C090958095709561957F4F8F4F9F4F1D
S1130740F0683F2E2AE030E0A3010E94CC04882EFA
S1130750861845C0853731F4232D2F7EB22E2AE02A
S113076030E025C0932D997FB92E8F36C1F018F44F
S1130770883579F0B5C0803719F0883721F0B0C0DA
S1130780E92FE061BE2EB4FE0DC0FB2DF460BF2E38
S113079009C034FE0AC0292F2660B22E06C028E004
S11307A030E005C020E130E002C020E132E0F80191
S11307B0B7FE07C060817181828193810C5F1F4FF6
S11307C006C06081718180E090E00E5F1F4FA3013D
S11307D00E94CC04882E8618FB2DFF773F2E36FE10
S11307E00DC0232D2E7FA22E891458F434FE0BC085
S11307F032FC09C0832D8E7EA82E05C0B82CA32CF4
S113080003C0B82C01C0B92CA4FE0FC0FE01E80D32
S1130810F11D8081803321F49A2D997EA92E09C07F
S1130820A2FE06C0B394B39404C08A2D867809F05E
S1130830B394A3FC11C0A0FE06C0B21488F4280C23
S1130840922C9B180EC0B21460F4B60180E290E0C2
S11308500E949004B394F7CFB21418F42B1802C07A
S1130860982C212CA4FE10C0B60180E390E00E94D5
S11308709004A2FE17C0A1FC03C088E790E002C068
S113088088E590E0B6010CC08A2D867859F0A1FE67
S113089002C08BE201C080E2A7FC8DE2B60190E0C9
S11308A00E949004891438F4B60180E390E00E9419
S11308B090049A94F7CF8A94F301E80DF11D808196
S11308C0B60190E00E9490048110F5CF222009F433
S11308D042CEB60180E290E00E9490042A94F6CFC2
S11308E0F6018681978102C08FEF9FEF2B96E2E19C
S11308F00C944605FC010590615070400110D8F736
S1130900809590958E0F9F1F0895FC016150704053
S113091001900110D8F7809590958E0F9F1F089530
S11309200F931F93CF93DF93FB01238121FD03C01A
S11309308FEF9FEF2CC022FF16C046815781248180
S113094035814217530744F4A081B1819D012F5F83
S11309503F4F318320838C93268137812F5F3F4F14
S11309603783268314C08B01EC01FB010084F185DD
S1130970E02D0995892BE1F6D80116968D919C916D
S11309801797019617969C938E931697CE01DF9135
S1130990CF911F910F910895FA01AA27283051F1A0
S11309A0203181F1E8946F936E7F6E5F7F4F8F4F9C
S11309B09F4FAF4FB1E03ED0B4E03CD0670F781FFB
S11309C0891F9A1FA11D680F791F8A1F911DA11DE0
S11309D06A0F711D811D911DA11D20D009F4689419
S11309E03F912AE0269F11243019305D3193DEF6C1
S11309F0CF010895462F4770405D4193B3E00FD077
S1130A00C9F7F6CF462F4F70405D4A3318F0495D61
S1130A1031FD4052419302D0A9F7EACFB4E0A69544
S1130A209795879577956795BA95C9F70097610566
S1130A30710508959B01AC010A2E069457954795BC
S1130A4037952795BA95C9F7620F731F841F951FB1
S1130A50A01D08952F923F924F925F926F927F92C2
S1130A608F929F92AF92BF92CF92DF92EF92FF92BA
S1130A700F931F93CF93DF93CDB7DEB7CA1BDB0B66
S1130A800FB6F894DEBF0FBECDBF09942A8839880B
S1130A9048885F846E847D848C849B84AA84B98412
S1130AA0C884DF80EE80FD800C811B81AA81B9811E
S1130AB0CE0FD11D0FB6F894DEBF0FBECDBFED0132
S1090AC00895F894FFCF35
S1130AC600000002000000006302000000005374EE
S1130AD6617274696E672E2E2E002575004144439B
S1130AE620466F7265203D2000414443204D6964D1
S1130AF6646C65203D20004144432052696E6720A2
S1130B063D20002D2D2D2D2D2D2D2D2D2D2D2D2D35
S1130B162D2D2D2D2D2D2D2D2D2D2D2D2D007330DF
S1130B2630650073303265007331346500733138D3
S1130B366500733139650073313165007331416580
S1090B460073313265006A
S9030000FC
