S0150000476C6F76652050726F6A6563742E737265631B
S11300000C945A000C9477000C9477000C943501EE
S11300100C9477000C947C000C9477000C9477007B
S11300200C9477000C9477000C9477000C94770070
S11300300C9477000C9477000C944A010C9477008C
S11300400C9477000C9477000C9477000C94770050
S11300500C9477000C9477000C9477000C94770040
S11300600C9477000C9477000C9477000C94770030
S11300700C9477000C9477000C9477000C94770020
S11300800C9477000C9477000C9477000C94770010
S11300900C9477000C9477000C9477000C94770000
S11300A00C9477000C9477000C9477000C947700F0
S11300B00C94770011241FBECFEFD8E0DEBFCDBF74
S11300C011E0A0E0B1E0EEEFF4E002C005900D9283
S11300D0AC33B107D9F721E0ACE3B1E001C01D9224
S11300E0A534B207E1F70E94A8000C947D020C9499
S11300F000000E94E90108951F920F920FB60F921B
S113010011240F900FBE0F901F901895EF92FF923D
S11301100F931F93CF93DF938C017C01C0E0D0E059
S113012006C0F70181917F010E9440022196F801E7
S113013001900020E9F73197E01BF10BCE17DF07A0
S113014080F3DF91CF911F910F91FF90EF9008956D
S1130150CF93DF9300D000D01F92CDB7DEB70E94BB
S11301607900389A85E0EAE1F1E0DE011196019028
S11301700D928A95E1F78EE091E00E948600409A04
S113018000E010E0EE24E394F12C6894CC24C4F84D
S1130190D12C85E00E94C7010E94D50186E00E940F
S11301A0C7010E94D50187E00E94C7010E94D501C2
S11301B00130110571F10031110509F446C0011532
S11301C0110539F780913C0190913D0181309105F1
S11301D041F4409810923D0110923C010C2D1D2DCC
S11301E0D8CF029741F4409810923D0110923C01FF
S11301F00E2D1F2DCECF85E0EAE1F1E0DE01119650
S113020001900D928A95E1F7CE0101960E94860035
S1130210C0CF409880913C0190913D010197029795
S113022030F410923D0110923C0100E010E085E0B2
S1130230EFE1F1E0DE01119601900D928A95E1F76C
S1130240CE0101960E948600A4CF409880913C0183
S113025090913D010197029708F09BCF10923D01C8
S113026010923C0100E010E094CF1F920F920FB661
S11302700F9211248F93EF93FF93EEE6F0E08081C9
S113028082608083FF91EF918F910F900FBE0F904A
S11302901F9018951F920F920FB60F9211242F934F
S11302A03F934F935F936F937F938F939F93AF93FA
S11302B0BF93EF93FF9380913E018F5F80933E0144
S11302C080913E018D3338F14A9913C084E291E064
S11302D00E944D0282E090E090933D0180933C01A6
S11302E04098EEE6F0E080818D7F808310923E019D
S11302F012C08FE291E00E944D0281E090E0909361
S11303003D0180933C014098EEE6F0E080818D7FD2
S1130310808310923E01FF91EF91BF91AF919F9125
S11303208F917F916F915F914F913F912F910F909A
S11303300FBE0F901F901895E4E6F0E080818E7F49
S1130340808310927C0081E880937A0010927B0075
S113035080E280937E0080E00895ECE7F0E09081F5
S1130360907F90839081892B8083EAE7F0E08081FD
S113037080648083089580917A00829581700895C5
S1130380809178002091790090E0922B08950E944A
S1130390AD010E94BB018823E1F30E94C001EAE79A
S11303A0F0E020812061208308958AE00895529826
S11303B05A980E94140208954598729873980E945E
S11303C09C01089550985898519A59980E9429026E
S11303D008958DE3809365008FEF8093640094B15A
S11303E014B895B185B997B1907897B998B19F67CA
S11303F098B99AB11AB89BB18BB98DB1807F8DB978
S11304008EB18F608EB940E060E881E690E00E9492
S11304101B0213BE15BE0E94D7010E94DC010E947C
S113042022020E94E201089584E080936800809390
S11304306D0080E008952FB7F894FC016083408339
S11304402FBF0895E4E6F0E08081877F808380E019
S11304500895E4E6F0E080818D7F80831092C500EA
S113046083E38093C4001092C00088E98093C100A4
S113047080E091E0909342018093410180E00895EF
S1130480E0ECF0E0908195FFFDCF8093C6000895E5
S11304900E94400280E090E008950F931F93CF9351
S11304A0DF93E0914101F0914201238121FF1BC0C0
S11304B08C01D0E0C0E0F80181918F01609141018D
S11304C070914201DB011896ED91FC9119978823F4
S11304D031F00995892B79F3DFEFCFEFECCF8AE088
S11304E00995892B19F08FEF9FEF02C08D2F9C2F58
S11104F0DF91CF911F910F910895F894FFCFE3
S11304FE00000002000000004802000000005374D7
S113050E617274696E672E2E2E007330306500731F
S113051E303265004C6F6E672050726573730053F2
S10F052E686F72742050726573730000D3
S9030000FC
