S02000004D6F746F7220436F6E74726F6C6C65722050726F6A6563742E73726563B8
S11300000C945A000C9477000C9477000C947700AD
S11300100C9477000C9477000C9477000C94770080
S11300200C9477000C9477000C9477000C94770070
S11300300C9477000C942A010C9477000C947700AC
S11300400C9477000C9477000C9477000C94770050
S11300500C9477000C9477000C9477000C94770040
S11300600C9477000C9477000C9477000C94770030
S11300700C9477000C9477000C9477000C94770020
S11300800C9477000C9477000C9477000C944C013A
S11300900C9477000C9477000C9477000C94770000
S11300A00C9477000C9477000C9477000C947700F0
S11300B00C94770011241FBECFEFD8E0DEBFCDBF74
S11300C011E0A0E0B1E0ECEEF8E002C005900D9282
S11300D0A232B107D9F721E0A2E2B1E001C01D923A
S11300E0AA32B207E1F70E949E000C9474040C94A7
S11300F000000E94EA000895EF92FF920F931F936D
S1130100CF93DF938C017C01C0E0D0E006C0F701FF
S113011081917F010E947D012196F80101900020C8
S1130120E9F73197E01BF10BCE17DF0780F3DF917E
S1130130CF911F910F91FF90EF900895CF93DF938C
S11301401F92CDB7DEB70E947900389A409A19827F
S11301500F2EFAE1EF2EF1E0FF2EF02D8E010F5F4E
S11301601F4F8EE091E00E947C000E9475011F9257
S11301708F93FF92EF921F930F930E948A01C801FD
S11301800E947C008DE191E00E947C008AE00E9444
S11301907D010F900F900F900F900F900F90898119
S11301A08833F9F68A818033E1F688B1807F88B993
S11301B0D8CF219A29980E941A010895529A5A98E0
S11301C00E943C01089550985898519A59980E9459
S11301D05E0108958DE3809365008FEF8093640042
S11301E094B114B895B185B997B1907897B998B18D
S11301F09F6798B99AB11AB89BB18BB98DB1807FBA
S11302008DB98EB18F608EB940E060E881E690E0F0
S11302100E94130113BE15BE0E94D9000E94DE0085
S11302200E94E30008952FB7F894FC016083408393
S11302302FBF0895E4E6F0E08081877F808383E226
S11302408093800081E18093810081E080936F003E
S113025080E008951F920F920FB60F9211248F938E
S113026016BA809123018F5F809323018F910F90A1
S11302700FBE0F901F901895E5E6F0E080818E7F09
S1130280808383E28093900081E18093910081E0F8
S11302908093710080E008951F920F920FB60F9221
S11302A011248F9318BA809122018F5F80932201C9
S11302B08F910F900FBE0F901F901895E4E6F0E019
S11302C080818D7F80831092C5008CE08093C40070
S11302D01092C00088E98093C10080E091E090937F
S11302E027018093260180E00895E0ECF0E080810E
S11302F08823ECF78091C6000895E0ECF0E090814B
S113030095FFFDCF8093C60008950E947D0180E093
S113031090E00895AEE0B0E0E0E9F1E00C944B0425
S11303200D891E8986E08C831A8309838FEF9FE7EA
S11303309E838D83AE01475E5F4F6F89788DCE01BA
S113034001960E94AC01EF81F885E00FF11F108245
S11303502E96E4E00C946704ABE0B0E0E2EBF1E04D
S11303600C943D046C017B018A01FC011782168206
S1130370838181FFCCC1CE0101963C01F6019381BA
S1130380F70193FD859193FF81917F01882309F4FF
S1130390BAC1853239F493FD859193FF81917F0130
S11303A0853229F4B60190E00E94A303E7CF912C93
S11303B0212C312CFFE1F315D8F08B3279F038F48D
S11303C0803279F08332A1F4232D20611DC08D3257
S11303D061F0803369F4232D216016C0832D82607F
S11303E0382EE32DE4603E2E2AC0F32DF8601DC0A4
S11303F037FC2DC020ED280F2A3040F08E32B9F49E
S113040036FC81C1232D2064322E19C036FE06C06D
S11304108AE0989E200D1124922E11C0EAE02E9EAF
S1130420200D1124222EF32DF0623F2E08C08C36AD
S113043021F4832D8068382E02C0883641F4F701F8
S113044093FD859193FF81917F018111B3CF982F03
S11304509F7D9554933028F40C5F1F4F9FE399833D
S11304600DC0833631F0833771F0833509F059C0FC
S113047021C0F801808189830E5F1F4F88248394F3
S1130480912C530113C02801F2E04F0E511CF801C6
S1130490A080B18036FE03C0692D70E002C06FEF0A
S11304A07FEFC5010E9498034C018201F32DFF7771
S11304B03F2E16C0280122E0420E511CF801A080F4
S11304C0B18036FE03C0692D70E002C06FEF7FEF8C
S11304D0C5010E948D034C01F32DF0683F2E82016B
S11304E033FC1BC0822D90E088169906B0F4B60147
S11304F080E290E00E94A3032A94F4CFF50137FC34
S1130500859137FE81915F01B60190E00E94A303BB
S113051021102A9421E0821A91088114910471F720
S1130520E8C0843611F0893641F5F80137FE07C07A
S113053060817181828193810C5F1F4F08C060814B
S11305407181072E000C880B990B0E5F1F4FF32D42
S1130550FF763F2E97FF09C0909580957095619521
S11305607F4F8F4F9F4FF0683F2E2AE030E0A3016A
S11305700E94DF03882E861845C0853731F4232D69
S11305802F7EB22E2AE030E025C0932D997FB92E1C
S11305908F36C1F018F4883579F0B5C0803719F07A
S11305A0883721F0B0C0E92FE061BE2EB4FE0DC043
S11305B0FB2DF460BF2E09C034FE0AC0292F26602B
S11305C0B22E06C028E030E005C020E130E002C0D1
S11305D020E132E0F801B7FE07C0608171818281B9
S11305E093810C5F1F4F06C06081718180E090E0B1
S11305F00E5F1F4FA3010E94DF03882E8618FB2D78
S1130600FF773F2E36FE0DC0232D2E7FA22E891498
S113061058F434FE0BC032FC09C0832D8E7EA82E04
S113062005C0B82CA32C03C0B82C01C0B92CA4FE5F
S11306300FC0FE01E80DF11D8081803321F49A2D55
S1130640997EA92E09C0A2FE06C0B394B39404C037
S11306508A2D867809F0B394A3FC11C0A0FE06C0CD
S1130660B21488F4280C922C9B180EC0B21460F4B7
S1130670B60180E290E00E94A303B394F7CFB214D2
S113068018F42B1802C0982C212CA4FE10C0B6011B
S113069080E390E00E94A303A2FE17C0A1FC03C064
S11306A088E790E002C088E590E0B6010CC08A2D8E
S11306B0867859F0A1FE02C08BE201C080E2A7FC5B
S11306C08DE2B60190E00E94A303891438F4B601C8
S11306D080E390E00E94A3039A94F7CF8A94F301F5
S11306E0E80DF11D8081B60190E00E94A303811002
S11306F0F5CF222009F442CEB60180E290E00E94B8
S1130700A3032A94F6CFF6018681978102C08FEF66
S11307109FEF2B96E2E10C945904FC010590615083
S113072070400110D8F7809590958E0F9F1F089503
S1130730FC016150704001900110D8F780959095AC
S11307408E0F9F1F08950F931F93CF93DF93FB0189
S1130750238121FD03C08FEF9FEF2CC022FF16C021
S113076046815781248135814217530744F4A0817F
S1130770B1819D012F5F3F4F318320838C9326816C
S113078037812F5F3F4F3783268314C08B01EC01E1
S1130790FB010084F185E02D0995892BE1F6D80150
S11307A016968D919C911797019617969C938E930C
S11307B01697CE01DF91CF911F910F910895FA0101
S11307C0AA27283051F1203181F1E8946F936E7F8C
S11307D06E5F7F4F8F4F9F4FAF4FB1E03ED0B4E07D
S11307E03CD0670F781F891F9A1FA11D680F791FBE
S11307F08A1F911DA11D6A0F711D811D911DA11DCF
S113080020D009F468943F912AE0269F11243019DE
S1130810305D3193DEF6CF010895462F4770405D79
S11308204193B3E00FD0C9F7F6CF462F4F70405D28
S11308304A3318F0495D31FD4052419302D0A9F783
S1130840EACFB4E0A6959795879577956795BA957D
S1130850C9F700976105710508959B01AC010A2E43
S113086006945795479537952795BA95C9F7620F1A
S1130870731F841F951FA01D08952F923F924F92BE
S11308805F926F927F928F929F92AF92BF92CF921C
S1130890DF92EF92FF920F931F93CF93DF93CDB725
S11308A0DEB7CA1BDB0B0FB6F894DEBF0FBECDBF9D
S11308B009942A88398848885F846E847D848C846E
S11308C09B84AA84B984C884DF80EE80FD800C8177
S11308D01B81AA81B981CE0FD11D0FB6F894DEBF5A
S10F08E00FBECDBFED010895F894FFCFCA
S11308EC00000002000000008501000000005374A9
S11308FC617274696E672E2E2E00257500456E6428
S105090C0000E5
S9030000FC
