S02000004D6F746F7220436F6E74726F6C6C65722050726F6A6563742E73726563B8
S11300000C9475000C9492000C9492000C94920041
S11300100C9492000C9492000C9492000C94920014
S11300200C9492000C9492000C9492000C94920004
S11300300C9492000C941E030C9492000C94920065
S11300400C9492000C9492000C9492000C949200E4
S11300500C9492000C9492000C9492000C949200D4
S11300600C9492000C9492000C9492000C949200C4
S11300700C9492000C9492000C9492000C949200B4
S11300800C9492000C9492000C9492000C945003E3
S11300900C9492000C9492000C9492000C94920094
S11300A00C9492000C9492000C9492000C94920084
S11300B00C9492007001C4017001C401C401C40114
S11300C0C401C401C401C401C401C401C401C40104
S11300D0C401C401C40164015801C4014A01C4013A
S11300E0C401C4013D013001760111241FBECFEFCC
S11300F0D8E0DEBFCDBF11E0A0E0B1E0E8E0FDE074
S113010002C005900D92AE31B107D9F721E0AEE1FE
S1130110B1E001C01D92A432B207E1F70E94B90018
S11301200C9482060C9400000E94CE020895EF9273
S1130130FF920F931F93CF93DF938C017C01C0E058
S1130140D0E006C0F70181917F010E947B032196D4
S1130150F80101900020E9F73197E01BF10BCE176D
S1130160DF0780F3DF91CF911F910F91FF90EF9004
S11301700895CF93DF93CDB7DEB765970FB6F894A4
S1130180DEBF0FBECDBF0E949400389A40980E94F3
S11301900E030E94400380E090E00E94190380E077
S11301A090E00E944B0380E090E00E94140380E002
S11301B090E00E94460319821C8A1D8A212C312C4E
S11301C01B8A1A8AC12CD12CE12CF12C412C512CE4
S11301D05E0126E0A20EB11C0F2EF0E06F2EF1E0BE
S11301E07F2EF02DCE0101964C018E010E5F1F4F24
S11301F00E947303F80181938F01AE16BF06C1F705
S11302008A81833719F58D81853601F58B81803399
S113021039F48C81803309F482C18233B9F482C108
S1130220813319F78C81823309F46FC0813411F45E
S1130230409A5CC0813309F474C0893309F47DC0E9
S1130240883309F487C0843309F491C0FBE14F1665
S1130250510408F099C0F201E65AFF4F0C9483034D
S11302600F2EF9E14F2EF02D512C1C8A22242A94B2
S1130270312C27E72A8B1B8A87C00F2EF8E14F2EDB
S1130280F02D512C1C8A22242A94312C8FEF8A8B36
S11302901B8A7AC00F2EF4E14F2EF02D512C91E0E1
S11302A09C8B22242A94312CEFEFEA8B1B8A6CC09E
S11302B00F2EF2E14F2EF02D512C1C8A212C312CC3
S11302C0FFEFFA8B1B8A60C00F2EF1E14F2EF02D49
S11302D0512C1C8A22242A94312C1A8A1B8A54C039
S11302E01C8A212C312C1A8A1B8A4EC00F2EFAE14B
S11302F04F2EF02D512C1C8A0F2EF7E72F2EF02DA8
S1130300312C2FEF2A8B1B8A3FC00F2EF2E14F2E88
S1130310F02D512C1C8A212C312C8FEF8A8B1B8AB7
S113032033C00F2EF1E14F2EF02D512C1C8A2224C4
S11303302A94312C1A8A1B8A27C00F2EF9E14F2EDA
S1130340F02D512C1C8A22242A94312C97E79A8B65
S11303501B8A1AC00F2EF8E14F2EF02D512C1C8A47
S113036022242A94312CEFEFEA8B1B8A0DC00F2E26
S1130370F4E14F2EF02D512CF1E0FC8B22242A9431
S1130380312C2FEF2A8B1B8A8D899C89891338C0C5
S11303902A893B892E193F09ADECBCEC0E948903E4
S11303A0969587959695879596958795E80EF91E67
S11303B08A899B898E199F098B3FEFEF9E0724F052
S11303C0069714F4EA88FB8891012C193D09ADECD9
S11303D0BCEC0E948903969587959695879596958A
S11303E08795C80ED91EC1018C199D098B3FFFEF5B
S11303F09F070CF44EC006970CF04BC0610149C036
S1130400222733272E193F09ADECBCEC0E94890347
S1130410969587959695879596958795E80EF91EF6
S1130420882799278E199F098B3F2FEF92071CF07D
S113043006970CF47CC0222733272C193D09ADEC18
S1130440BCEC0E9489039695879596958795969519
S11304508795C80ED91E882799278C199D098B3F2B
S1130460EFEF9E071CF006970CF47AC0E114F10438
S113047081F4C114D10459F481E0FD89F13009F407
S113048080E08D8BC12CD12CE12CF12C02C0E12C0D
S1130490F12CF0922101E0922001D0921F01C09230
S11304A01E0180912001909121019F938F937F924F
S11304B06F929F928F920E94980383E091E00E9432
S11304C09700C4010E9497008AE00E947B038091F8
S11304D01E0190911F019F938F937F926F929F9221
S11304E08F920E94980380E191E00E949700C401DA
S11304F00E9497008AE00E947B03809120019091E2
S113050021010E94190380911E0190911F010E94F4
S11305104B030FB6F894DEBF0FBECDBF66CE412CA1
S1130520512CDECE6894442441F8512CD9CE222794
S113053033272C193D09ADECBCEC0E948903969538
S113054087959695879596958795C80ED91E882781
S113055099278C199D098B3FEFEF9E0744F489CFAF
S1130560E114F10409F488CFC12CD12C92CF069761
S11305700CF482CFE12CF12C79CF219A29980E9496
S1130580FE020895529A5A980E9430030895509892
S11305905898519A59980E94620308958DE3809364
S11305A065008FEF8093640094B114B895B185B958
S11305B097B1907897B998B19F6798B99AB11AB8DA
S11305C09BB18BB98DB1807F8DB98EB18F608EB99F
S11305D040E060E881E690E00E94F70213BE15BE99
S11305E00E94BD020E94C2020E94C70208952FB752
S11305F0F894FC01608340832FBF0895E4E6F0E0A3
S11306008081877F808383E28093800081E180936F
S1130610810081E080936F0080E00895E0E8F0E0DD
S11306208081806280830895909385008093840004
S1130630089590938B0080938A0008951F920F92DF
S11306400FB60F9211248F9316BA809123018F5FF6
S1130650809323018F910F900FBE0F901F901895D8
S1130660E5E6F0E080818E7F808383E280939000D2
S113067081E18093910081E08093710080E008958E
S1130680E0E9F0E080818062808308959093950092
S113069080939400089590939B0080939A0008950A
S11306A01F920F920FB60F9211248F9318BA809154
S11306B022018F5F809322018F910F900FBE0F90C4
S11306C01F901895E4E6F0E080818D7F808310927E
S11306D0C50083E38093C4001092C00088E980932E
S11306E0C10080E00895E0ECF0E080818823ECF71D
S11306F08091C6000895E0ECF0E0908195FFFDCF75
S11307008093C6000895EE0FFF1F0590F491E02D2D
S11307100994A29FB001B39FC001A39F700D811DD6
S11307201124911DB29F700D811D1124911D0895F6
S1130730AEE0B0E0EEE9F3E00C9459060D891E89B1
S113074086E08C831A8309838FEF9FE79E838D83D2
S1130750AE01475E5F4F6F89788DCE0101960E948E
S1130760BA03EF81F885E00FF11F10822E96E4E0C2
S11307700C947506ABE0B0E0E0ECF3E00C944B06AF
S11307806C017B018A01FC0117821682838181FF3F
S1130790CCC1CE0101963C01F6019381F70193FD92
S11307A0859193FF81917F01882309F4BAC1853231
S11307B039F493FD859193FF81917F01853229F46A
S11307C0B60190E00E94B105E7CF912C212C312C89
S11307D0FFE1F315D8F08B3279F038F4803279F0F8
S11307E08332A1F4232D20611DC08D3261F080334A
S11307F069F4232D216016C0832D8260382EE32DE9
S1130800E4603E2E2AC0F32DF8601DC037FC2DC0D5
S113081020ED280F2A3040F08E32B9F436FC81C125
S1130820232D2064322E19C036FE06C08AE0989E1D
S1130830200D1124922E11C0EAE02E9E200D1124C9
S1130840222EF32DF0623F2E08C08C3621F4832D26
S11308508068382E02C0883641F4F70193FD8591F3
S113086093FF81917F018111B3CF982F9F7D955480
S1130870933028F40C5F1F4F9FE399830DC0833698
S113088031F0833771F0833509F059C021C0F80184
S1130890808189830E5F1F4F88248394912C530198
S11308A013C02801F2E04F0E511CF801A080B18062
S11308B036FE03C0692D70E002C06FEF7FEFC50103
S11308C00E94A6054C018201F32DFF773F2E16C02E
S11308D0280122E0420E511CF801A080B18036FEAE
S11308E003C0692D70E002C06FEF7FEFC5010E9465
S11308F09B054C01F32DF0683F2E820133FC1BC095
S1130900822D90E088169906B0F4B60180E290E05A
S11309100E94B1052A94F4CFF50137FC859137FE86
S113092081915F01B60190E00E94B10521102A94E3
S113093021E0821A91088114910471F7E8C0843689
S113094011F0893641F5F80137FE07C060817181E5
S1130950828193810C5F1F4F08C060817181072ED3
S1130960000C880B990B0E5F1F4FF32DFF763F2E63
S113097097FF09C090958095709561957F4F8F4F33
S11309809F4FF0683F2E2AE030E0A3010E94ED055E
S1130990882E861845C0853731F4232D2F7EB22E3C
S11309A02AE030E025C0932D997FB92E8F36C1F00F
S11309B018F4883579F0B5C0803719F0883721F0FC
S11309C0B0C0E92FE061BE2EB4FE0DC0FB2DF46073
S11309D0BF2E09C034FE0AC0292F2660B22E06C0DD
S11309E028E030E005C020E130E002C020E132E040
S11309F0F801B7FE07C060817181828193810C5F29
S1130A001F4F06C06081718180E090E00E5F1F4F30
S1130A10A3010E94ED05882E8618FB2DFF773F2E3B
S1130A2036FE0DC0232D2E7FA22E891458F434FED9
S1130A300BC032FC09C0832D8E7EA82E05C0B82CB5
S1130A40A32C03C0B82C01C0B92CA4FE0FC0FE0116
S1130A50E80DF11D8081803321F49A2D997EA92E11
S1130A6009C0A2FE06C0B394B39404C08A2D86784C
S1130A7009F0B394A3FC11C0A0FE06C0B21488F41C
S1130A80280C922C9B180EC0B21460F4B60180E2BC
S1130A9090E00E94B105B394F7CFB21418F42B1868
S1130AA002C0982C212CA4FE10C0B60180E390E073
S1130AB00E94B105A2FE17C0A1FC03C088E790E024
S1130AC002C088E590E0B6010CC08A2D867859F002
S1130AD0A1FE02C08BE201C080E2A7FC8DE2B60158
S1130AE090E00E94B105891438F4B60180E390E0E7
S1130AF00E94B1059A94F7CF8A94F301E80DF11D91
S1130B008081B60190E00E94B1058110F5CF2220CA
S1130B1009F442CEB60180E290E00E94B1052A9425
S1130B20F6CFF6018681978102C08FEF9FEF2B9657
S1130B30E2E10C946706FC010590615070400110DD
S1130B40D8F7809590958E0F9F1F0895FC016150F2
S1130B50704001900110D8F7809590958E0F9F1FDB
S1130B6008950F931F93CF93DF93FB01238121FDFE
S1130B7003C08FEF9FEF2CC022FF16C04681578120
S1130B80248135814217530744F4A081B1819D012A
S1130B902F5F3F4F318320838C93268137812F5FD2
S1130BA03F4F3783268314C08B01EC01FB01008483
S1130BB0F185E02D0995892BE1F6D80116968D91E2
S1130BC09C911797019617969C938E931697CE0136
S1130BD0DF91CF911F910F910895FA01AA27283030
S1130BE051F1203181F1E8946F936E7F6E5F7F4FF6
S1130BF08F4F9F4FAF4FB1E03ED0B4E03CD0670F72
S1130C00781F891F9A1FA11D680F791F8A1F911DC4
S1130C10A11D6A0F711D811D911DA11D20D009F414
S1130C2068943F912AE0269F11243019305D319356
S1130C30DEF6CF010895462F4770405D4193B3E03F
S1130C400FD0C9F7F6CF462F4F70405D4A3318F0E6
S1130C50495D31FD4052419302D0A9F7EACFB4E097
S1130C60A6959795879577956795BA95C9F700974F
S1130C706105710508959B01AC010A2E06945795F0
S1130C80479537952795BA95C9F7620F731F841F47
S1130C90951FA01D08952F923F924F925F926F92DD
S1130CA07F928F929F92AF92BF92CF92DF92EF92F8
S1130CB0FF920F931F93CF93DF93CDB7DEB7CA1B79
S1130CC0DB0B0FB6F894DEBF0FBECDBF09942A88A4
S1130CD0398848885F846E847D848C849B84AA844C
S1130CE0B984C884DF80EE80FD800C811B81AA81D9
S1130CF0B981CE0FD11D0FB6F894DEBF0FBECDBFA4
S10B0D00ED010895F894FFCF02
S1130D0825750050574D5F305F647574793D200038
S1110D1850574D5F315F647574793D200000C3
S9030000FC
