:100000000C9475000C9492000C9492000C94920045
:100010000C9492000C9492000C9492000C94920018
:100020000C9492000C9492000C9492000C94920008
:100030000C9492000C944C020C9492000C9492003C
:100040000C9492000C9492000C9492000C949200E8
:100050000C9492000C9492000C9492000C949200D8
:100060000C9492000C9492000C9492000C949200C8
:100070000C9492000C9492000C9492000C949200B8
:100080000C9492000C9492000C9492000C945E02DA
:100090000C9492000C9492000C9492000C94920098
:1000A0000C9492000C9492000C9492000C94920088
:1000B0000C9492000502A8010502A801A801A8015C
:1000C000A801A801A801A801A801A801A801A801E8
:1000D000A801A801A801A001FD01A8010A02A80128
:1000E000A801A80186019301790111241FBECFEF59
:1000F000D8E0DEBFCDBF11E0A0E0B1E0E8E2FBE078
:1001000002C005900D92A232B107D9F721E0A2E218
:10011000B1E001C01D92AA32B207E1F70E94B90016
:100120000C9492050C9400000E9420020895EF9216
:10013000FF920F931F93CF93DF938C017C01C0E05C
:10014000D0E006C0F70181917F010E9495022196BF
:10015000F80101900020E9F73197E01BF10BCE1771
:10016000DF0780F3DF91CF911F910F91FF90EF9008
:100170000895CF93DF9300D01F92CDB7DEB70E94D2
:100180009400389A409A19820F2EFAE1EF2EF1E08E
:10019000FF2EF02D8E010F5F1F4F22C00E9487029D
:1001A0008823F1F08EE091E00E9497000E948D027A
:1001B0001F928F93FF92EF921F930F930E94A802BA
:1001C000C8010E9497008DE191E00E9497008AE0AB
:1001D0000E9495020F900F900F900F900F900F902C
:1001E0000E9487028111DACF84B1876084B98AB115
:1001F00084678AB9689A8BB180658BB95D9881E014
:100200008EB9E4E6F0E08081877F8083E5E6F0E068
:1002100080818E7F808382E88093800081E180935B
:10022000810092E2909390008093910080EA90E0A8
:100230009093870080938600909397008093960018
:10024000109289001092880010929B0010929A00E0
:10025000512CC12CD12C812C912CE12CF12CA12CD6
:10026000B12C00E010E0412C0F2EF8E86F2E712C1D
:10027000F02D0F2EFAE92F2E312CF02D0E9487023F
:10028000882379F10E948D02833759F50E948D02EF
:100290008A830E948D028B830E948D02853609F528
:1002A0002A81203361F48B81803309F497C0823333
:1002B000C1F483E20E94950202E010E091C09A81AD
:1002C0009133E1F6EB81E23309F48DC0E13489F03A
:1002D000E133B1F1E93339F1E833C1F0E43309F442
:1002E00099C00B311105A0F5F801E65AFF4F0C94A7
:1002F000A2020AE110E00F2EF9E1CF2EF02DD12C51
:100300000F2EF2E38F2E912CF02D24C008E110E087
:100310000F2EF2E3CF2ED12CF02D0F2EF2E38F2EE5
:10032000912CF02D17C009E110E00F2EF2E3CF2E33
:10033000D12CF02D0F2EF9E18F2EF02D912C0AC02B
:1003400001E110E00F2EF2E3CF2ED12CF02D5FC093
:10035000511037C0A814B90420F4FFEFAF1ABF0A38
:1003600011C08A149B0420F421E0A21AB1080AC02B
:10037000C4018A199B098E3FEFEF9E071CF003977B
:100380000CF45401EC14FD0428F4FFEFEF1AFF0AFB
:10039000512C17C0CE14DF0428F421E0E21AF10832
:1003A000512C0FC0C6018E199F098E3FEFEF9E079B
:1003B0002CF003972CF47601512C03C0512C01C072
:1003C000512CF301B182A082F101F182E0828FE32E
:1003D0009CE90197F1F700C0000050CF00E0142D18
:1003E000C12CD42C14C002E110E0C12CD42C0F2E4F
:1003F000F2E38F2E912CF02DADCFC12CD42C0F2EEB
:10040000F2E38F2E912CF02DA5CFC12CD42C812C72
:10041000942CA7CF552453940F2EF2E3CF2ED12C3A
:10042000F02D0F2EF2E38F2E912CF02D04E110E031
:10043000C8CF50985898519A59980E9470020895C0
:100440008DE3809365008FEF8093640094B114B8BE
:1004500095B185B997B1907897B998B19F6798B9D8
:100460009AB11AB89BB18BB98DB1807F8DB98EB11D
:100470008F608EB940E060E881E690E00E9445021E
:1004800013BE15BE0E94190208952FB7F894FC01FF
:10049000608340832FBF08951F920F920FB60F9273
:1004A00011248F9316BA809123018F5F80932301CB
:1004B0008F910F900FBE0F901F9018951F920F9263
:1004C0000FB60F9211248F9318BA809122018F5F7B
:1004D000809322018F910F900FBE0F901F9018955F
:1004E000E4E6F0E080818D7F80831092C5008CE08F
:1004F0008093C4001092C00088E98093C10080E01E
:1005000091E0909327018093260180E008958091E7
:10051000C000881F8827881F0895E0ECF0E08081E4
:100520008823ECF78091C6000895E0ECF0E090811C
:1005300095FFFDCF8093C60008950E94950280E04C
:1005400090E00895EE0FFF1F0590F491E02D0994BF
:10055000AEE0B0E0EEEAF2E00C9469050D891E8988
:1005600086E08C831A8309838FEF9FE79E838D83B8
:10057000AE01475E5F4F6F89788DCE0101960E9474
:10058000CA02EF81F885E00FF11F10822E96E4E099
:100590000C948505ABE0B0E0E0EDF2E00C945B0577
:1005A0006C017B018A01FC0117821682838181FF25
:1005B000CCC1CE0101963C01F6019381F70193FD78
:1005C000859193FF81917F01882309F4BAC1853217
:1005D00039F493FD859193FF81917F01853229F450
:1005E000B60190E00E94C104E7CF912C212C312C60
:1005F000FFE1F315D8F08B3279F038F4803279F0DE
:100600008332A1F4232D20611DC08D3261F080332F
:1006100069F4232D216016C0832D8260382EE32DCE
:10062000E4603E2E2AC0F32DF8601DC037FC2DC0BB
:1006300020ED280F2A3040F08E32B9F436FC81C10B
:10064000232D2064322E19C036FE06C08AE0989E03
:10065000200D1124922E11C0EAE02E9E200D1124AF
:10066000222EF32DF0623F2E08C08C3621F4832D0C
:100670008068382E02C0883641F4F70193FD8591D9
:1006800093FF81917F018111B3CF982F9F7D955466
:10069000933028F40C5F1F4F9FE399830DC083367E
:1006A00031F0833771F0833509F059C021C0F8016A
:1006B000808189830E5F1F4F88248394912C53017E
:1006C00013C02801F2E04F0E511CF801A080B18048
:1006D00036FE03C0692D70E002C06FEF7FEFC501E9
:1006E0000E94B6044C018201F32DFF773F2E16C005
:1006F000280122E0420E511CF801A080B18036FE94
:1007000003C0692D70E002C06FEF7FEFC5010E944A
:10071000AB044C01F32DF0683F2E820133FC1BC06B
:10072000822D90E088169906B0F4B60180E290E040
:100730000E94C1042A94F4CFF50137FC859137FE5D
:1007400081915F01B60190E00E94C10421102A94BA
:1007500021E0821A91088114910471F7E8C084366F
:1007600011F0893641F5F80137FE07C060817181CB
:10077000828193810C5F1F4F08C060817181072EB9
:10078000000C880B990B0E5F1F4FF32DFF763F2E49
:1007900097FF09C090958095709561957F4F8F4F19
:1007A0009F4FF0683F2E2AE030E0A3010E94FD0435
:1007B000882E861845C0853731F4232D2F7EB22E22
:1007C0002AE030E025C0932D997FB92E8F36C1F0F5
:1007D00018F4883579F0B5C0803719F0883721F0E2
:1007E000B0C0E92FE061BE2EB4FE0DC0FB2DF46059
:1007F000BF2E09C034FE0AC0292F2660B22E06C0C3
:1008000028E030E005C020E130E002C020E132E025
:10081000F801B7FE07C060817181828193810C5F0E
:100820001F4F06C06081718180E090E00E5F1F4F16
:10083000A3010E94FD04882E8618FB2DFF773F2E12
:1008400036FE0DC0232D2E7FA22E891458F434FEBF
:100850000BC032FC09C0832D8E7EA82E05C0B82C9B
:10086000A32C03C0B82C01C0B92CA4FE0FC0FE01FC
:10087000E80DF11D8081803321F49A2D997EA92EF7
:1008800009C0A2FE06C0B394B39404C08A2D867832
:1008900009F0B394A3FC11C0A0FE06C0B21488F402
:1008A000280C922C9B180EC0B21460F4B60180E2A2
:1008B00090E00E94C104B394F7CFB21418F42B183F
:1008C00002C0982C212CA4FE10C0B60180E390E059
:1008D0000E94C104A2FE17C0A1FC03C088E790E0FB
:1008E00002C088E590E0B6010CC08A2D867859F0E8
:1008F000A1FE02C08BE201C080E2A7FC8DE2B6013E
:1009000090E00E94C104891438F4B60180E390E0BD
:100910000E94C1049A94F7CF8A94F301E80DF11D67
:100920008081B60190E00E94C1048110F5CF2220A1
:1009300009F442CEB60180E290E00E94C1042A94FC
:10094000F6CFF6018681978102C08FEF9FEF2B963D
:10095000E2E10C947705FC010590615070400110B4
:10096000D8F7809590958E0F9F1F0895FC016150D8
:10097000704001900110D8F7809590958E0F9F1FC1
:1009800008950F931F93CF93DF93FB01238121FDE4
:1009900003C08FEF9FEF2CC022FF16C04681578106
:1009A000248135814217530744F4A081B1819D0110
:1009B0002F5F3F4F318320838C93268137812F5FB8
:1009C0003F4F3783268314C08B01EC01FB01008469
:1009D000F185E02D0995892BE1F6D80116968D91C8
:1009E0009C911797019617969C938E931697CE011C
:1009F000DF91CF911F910F910895FA01AA27283016
:100A000051F1203181F1E8946F936E7F6E5F7F4FDB
:100A10008F4F9F4FAF4FB1E03ED0B4E03CD0670F57
:100A2000781F891F9A1FA11D680F791F8A1F911DAA
:100A3000A11D6A0F711D811D911DA11D20D009F4FA
:100A400068943F912AE0269F11243019305D31933C
:100A5000DEF6CF010895462F4770405D4193B3E025
:100A60000FD0C9F7F6CF462F4F70405D4A3318F0CC
:100A7000495D31FD4052419302D0A9F7EACFB4E07D
:100A8000A6959795879577956795BA95C9F7009735
:100A90006105710508959B01AC010A2E06945795D6
:100AA000479537952795BA95C9F7620F731F841F2D
:100AB000951FA01D08952F923F924F925F926F92C3
:100AC0007F928F929F92AF92BF92CF92DF92EF92DE
:100AD000FF920F931F93CF93DF93CDB7DEB7CA1B5F
:100AE000DB0B0FB6F894DEBF0FBECDBF09942A888A
:100AF000398848885F846E847D848C849B84AA8432
:100B0000B984C884DF80EE80FD800C811B81AA81BE
:100B1000B981CE0FD11D0FB6F894DEBF0FBECDBF89
:080B2000ED010895F894FFCFE8
:100B280000000002000000009D0200000000537455
:100B3800617274696E672E2E2E0025750020456E31
:020B4800640047
:00000001FF
