S02000004D6F746F7220436F6E74726F6C6C65722050726F6A6563742E73726563B8
S11300000C945A000C9477000C9477000C947700AD
S11300100C9477000C9477000C9477000C94770080
S11300200C9477000C9477000C9477000C94770070
S11300300C9477000C9421010C9477000C947700B5
S11300400C9477000C9477000C9477000C94770050
S11300500C9477000C9477000C9477000C94770040
S11300600C9477000C9477000C9477000C94770030
S11300700C9477000C9477000C9477000C94770020
S11300800C9477000C9477000C9477000C94430143
S11300900C9477000C9477000C9477000C94770000
S11300A00C9477000C9477000C9477000C947700F0
S11300B00C94770011241FBECFEFD8E0DEBFCDBF74
S11300C011E0A0E0B1E0E6EEF8E002C005900D9288
S11300D0A231B107D9F721E0A2E1B1E001C01D923C
S11300E0AA31B207E1F70E949E000C9471040C94AB
S11300F000000E94E1000895EF92FF920F931F9376
S1130100CF93DF938C017C01C0E0D0E006C0F701FF
S113011081917F010E947A012196F80101900020CB
S1130120E9F73197E01BF10BCE17DF0780F3DF917E
S1130130CF911F910F91FF90EF900895CF93DF938C
S11301401F92CDB7DEB70E947900389A409A19827F
S11301500EE011E0CE0101967C01C82EDF2C0E9436
S11301606C018823E1F317C00E9472011F928F93E0
S11301701F930F93FF92EF920E9487018C2D9D2D68
S11301800E947C008AE00E947A010F900F900F90E9
S11301900F900F900F900E946C018111E5CFDFCF7B
S11301A0219A29980E9411010895529A5A980E94FE
S11301B03301089550985898519A59980E945501BE
S11301C008958DE3809365008FEF8093640094B16C
S11301D014B895B185B997B1907897B998B19F67DC
S11301E098B99AB11AB89BB18BB98DB1807F8DB98A
S11301F08EB18F608EB940E060E881E690E00E94A5
S11302000A0113BE15BE0E94D0000E94D5000E94B0
S1130210DA0008952FB7F894FC01608340832FBF60
S11302200895E4E6F0E08081877F808383E2809311
S1130230800081E18093810081E080936F0080E001
S113024008951F920F920FB60F9211248F9316BA2E
S1130250809113018F5F809313018F910F900FBED4
S11302600F901F901895E5E6F0E080818E7F8083E3
S113027083E28093900081E18093910081E08093F8
S1130280710080E008951F920F920FB60F9211240F
S11302908F9318BA809112018F5F809312018F910E
S11302A00F900FBE0F901F901895E4E6F0E0808148
S11302B08D7F80831092C5008CE08093C4001092DF
S11302C0C00088E98093C10080E091E09093170119
S11302D08093160180E008958091C000881F8827CC
S11302E0881F0895E0ECF0E080818823ECF780918A
S11302F0C6000895E0ECF0E0908195FFFDCF809377
S1130300C60008950E947A0180E090E00895AEE06E
S1130310B0E0EDE8F1E00C9448040D891E8986E014
S11303208C831A8309838FEF9FE79E838D83AE01AD
S1130330475E5F4F6F89788DCE0101960E94A901B7
S1130340EF81F885E00FF11F10822E96E4E00C9403
S11303506404ABE0B0E0EFEAF1E00C943A046C0121
S11303607B018A01FC0117821682838181FFCCC143
S1130370CE0101963C01F6019381F70193FD85912D
S113038093FF81917F01882309F4BAC1853239F43E
S113039093FD859193FF81917F01853229F4B60104
S11303A090E00E94A003E7CF912C212C312CFFE197
S11303B0F315D8F08B3279F038F4803279F0833247
S11303C0A1F4232D20611DC08D3261F0803369F4C6
S11303D0232D216016C0832D8260382EE32DE46026
S11303E03E2E2AC0F32DF8601DC037FC2DC020ED31
S11303F0280F2A3040F08E32B9F436FC81C1232D07
S11304002064322E19C036FE06C08AE0989E200D64
S11304101124922E11C0EAE02E9E200D1124222ECA
S1130420F32DF0623F2E08C08C3621F4832D8068B2
S1130430382E02C0883641F4F70193FD859193FF6D
S113044081917F018111B3CF982F9F7D9554933073
S113045028F40C5F1F4F9FE399830DC0833631F05E
S1130460833771F0833509F059C021C0F8018081C8
S113047089830E5F1F4F88248394912C530113C0EA
S11304802801F2E04F0E511CF801A080B18036FE25
S113049003C0692D70E002C06FEF7FEFC5010E94B9
S11304A095034C018201F32DFF773F2E16C02801DE
S11304B022E0420E511CF801A080B18036FE03C038
S11304C0692D70E002C06FEF7FEFC5010E948A03BF
S11304D04C01F32DF0683F2E820133FC1BC0822DAA
S11304E090E088169906B0F4B60180E290E00E948C
S11304F0A0032A94F4CFF50137FC859137FE81914E
S11305005F01B60190E00E94A00321102A9421E02B
S1130510821A91088114910471F7E8C0843611F0AD
S1130520893641F5F80137FE07C060817181828107
S113053093810C5F1F4F08C060817181072E000CEE
S1130540880B990B0E5F1F4FF32DFF763F2E97FFFD
S113055009C090958095709561957F4F8F4F9F4FFF
S1130560F0683F2E2AE030E0A3010E94DC03882ECD
S1130570861845C0853731F4232D2F7EB22E2AE00C
S113058030E025C0932D997FB92E8F36C1F018F431
S1130590883579F0B5C0803719F0883721F0B0C0BC
S11305A0E92FE061BE2EB4FE0DC0FB2DF460BF2E1A
S11305B009C034FE0AC0292F2660B22E06C028E0E6
S11305C030E005C020E130E002C020E132E0F80173
S11305D0B7FE07C060817181828193810C5F1F4FD8
S11305E006C06081718180E090E00E5F1F4FA3011F
S11305F00E94DC03882E8618FB2DFF773F2E36FEE3
S11306000DC0232D2E7FA22E891458F434FE0BC066
S113061032FC09C0832D8E7EA82E05C0B82CA32CD5
S113062003C0B82C01C0B92CA4FE0FC0FE01E80D14
S1130630F11D8081803321F49A2D997EA92E09C061
S1130640A2FE06C0B394B39404C08A2D867809F040
S1130650B394A3FC11C0A0FE06C0B21488F4280C05
S1130660922C9B180EC0B21460F4B60180E290E0A4
S11306700E94A003B394F7CFB21418F42B1802C04D
S1130680982C212CA4FE10C0B60180E390E00E94B7
S1130690A003A2FE17C0A1FC03C088E790E002C03B
S11306A088E590E0B6010CC08A2D867859F0A1FE49
S11306B002C08BE201C080E2A7FC8DE2B60190E0AB
S11306C00E94A003891438F4B60180E390E00E94EC
S11306D0A0039A94F7CF8A94F301E80DF11D808169
S11306E0B60190E00E94A0038110F5CF222009F406
S11306F042CEB60180E290E00E94A0032A94F6CF95
S1130700F6018681978102C08FEF9FEF2B96E2E17D
S11307100C945604FC010590615070400110D8F708
S1130720809590958E0F9F1F0895FC016150704035
S113073001900110D8F7809590958E0F9F1F089512
S11307400F931F93CF93DF93FB01238121FD03C0FC
S11307508FEF9FEF2CC022FF16C046815781248162
S113076035814217530744F4A081B1819D012F5F65
S11307703F4F318320838C93268137812F5F3F4FF6
S11307803783268314C08B01EC01FB010084F185BF
S1130790E02D0995892BE1F6D80116968D919C914F
S11307A01797019617969C938E931697CE01DF9117
S11307B0CF911F910F910895FA01AA27283051F182
S11307C0203181F1E8946F936E7F6E5F7F4F8F4F7E
S11307D09F4FAF4FB1E03ED0B4E03CD0670F781FDD
S11307E0891F9A1FA11D680F791F8A1F911DA11DC2
S11307F06A0F711D811D911DA11D20D009F46894FB
S11308003F912AE0269F11243019305D3193DEF6A2
S1130810CF010895462F4770405D4193B3E00FD058
S1130820C9F7F6CF462F4F70405D4A3318F0495D43
S113083031FD4052419302D0A9F7EACFB4E0A69526
S11308409795879577956795BA95C9F70097610548
S1130850710508959B01AC010A2E0694579547959E
S113086037952795BA95C9F7620F731F841F951F93
S1130870A01D08952F923F924F925F926F927F92A4
S11308808F929F92AF92BF92CF92DF92EF92FF929C
S11308900F931F93CF93DF93CDB7DEB7CA1BDB0B48
S11308A00FB6F894DEBF0FBECDBF09942A883988ED
S11308B048885F846E847D848C849B84AA84B984F4
S11308C0C884DF80EE80FD800C811B81AA81B98100
S11308D0CE0FD11D0FB6F894DEBF0FBECDBFED0114
S10908E00895F894FFCF17
S11308E600000002000000008201000000002575DF
S10508F60000FC
S9030000FC
