S02000004D6F746F7220436F6E74726F6C6C65722050726F6A6563742E73726563B8
S11300000C9475000C9492000C9492000C94920041
S11300100C9492000C9492000C9492000C94920014
S11300200C9492000C94CB020C9492000C949200C9
S11300300C9492000C9492000C9492000C949200F4
S11300400C94A4020C9492000C9492000C949200D0
S11300500C9492000C9492000C9492000C949200D4
S11300600C9492000C9492000C9492000C949200C4
S11300700C9492000C9492000C9492000C949200B4
S11300800C9492000C9492000C9492000C949200A4
S11300900C9492000C9492000C9492000C94920094
S11300A00C9492000C9492000C9492000C94920084
S11300B00C9492004E01A4014E01A401A401A401D8
S11300C0A401A401A401A401A401A401A401A40104
S11300D0A401A401A40142013601A4012801A40140
S11300E0A401A4011B010C01FD0011241FBECFEFCC
S11300F0D8E0DEBFCDBF11E0A0E0B1E0EAE1F6E078
S113010002C005900D92A030B107D9F721E0A0E01C
S1130110B1E001C01D92A430B207E1F70E9497003C
S11301200C940B030C9400000E9464020895CF9376
S1130130DF93CDB7DEB760970FB6F894DEBF0FBE7E
S1130140CDBF0E9494000E949D020E94C00280E0E4
S11301500E94A20280E00E94C80280E00E94A002E5
S113016080E00E94C502312C212C612C712C412C81
S1130170512CC12CD12CE12CF12C812C912C5E0121
S113018025E0A20EB11C8E010F5F1F4F0E94EE02EC
S1130190F80181938F01EA15FB05C1F78981833743
S11301A011F58C818536F9F48A81803339F48B8199
S11301B0803309F455C18233B1F455C1813319F741
S11301C08B81823309F470C0813409F479C081339E
S11301D009F485C0893309F48EC0883309F49AC0C0
S11301E0843309F4A4C0FBE18F16910408F0ACC079
S11301F0F401E65AFF4F0C94F6020F2EFAE18F2E0B
S1130200F02D912C312C0F2EF7E76F2EF02D712C41
S113021044244A94512C98C00F2EF9E18F2EF02DCE
S1130220912C312C66246A94712C0F2EF7E74F2EF3
S1130230F02D512C89C00F2EF8E18F2EF02D912C2A
S1130240312C66246A94712C44244A94512C7CC029
S11302500F2EF4E18F2EF02D912C33243394662449
S11302606A94712C44244A94512C6EC00F2EF2E1EE
S11302708F2EF02D912C312C612C712C44244A9416
S1130280512C62C00F2EF1E18F2EF02D912C312CC8
S113029066246A94712C412C512C56C0312C612C4B
S11302A0712C412C512C50C00F2EF2E18F2EF02DC9
S11302B0912C312C612C712C44244A94512C44C02F
S11302C00F2EFAE18F2EF02D912C312C0F2EF7E703
S11302D06F2EF02D712C44244A94512C35C00F2ECE
S11302E0F1E18F2EF02D912C312C66246A94712C1F
S11302F0412C512C29C00F2EF9E18F2EF02D912C79
S1130300312C66246A94712C0F2EF7E74F2EF02DB2
S1130310512C1AC00F2EF8E18F2EF02D912C312C78
S113032066246A94712C44244A94512C0DC00F2ED7
S1130330F4E18F2EF02D912C3324339466246A94A7
S1130340712C44244A94512C231035C092012E1947
S11303503F093695279536952795ABE7B4E10E947A
S1130360FC0296958795E80EF91EC2018E199F0925
S11303708B3F2FEF92071CF006970CF47201930148
S11303802C193D093695279536952795ABE7B4E1A9
S11303900E94FC0296958795C80ED91EC3018C193C
S11303A09D098B3FEFEF9E070CF44DC006970CF0B0
S11303B04AC0630148C0222733272E193F093695C6
S11303C0279536952795ABE7B4E10E94FC029695F4
S11303D08795E80EF91E882799278E199F098B3F68
S11303E0FFEF9F071CF006970CF442C02227332727
S11303F02C193D093695279536952795ABE7B4E139
S11304000E94FC0296958795C80ED91E88279927C5
S11304108C199D098B3F2FEF92071CF006970CF463
S113042040C0E114F10479F4C114D10451F481E021
S1130430281201C080E0282EC12CD12CE12CF12CF3
S113044002C0E12CF12CE0920101C09200018091E4
S113045001010E94A202809100010E94C80293CE71
S1130460812C912C1BCF6894882481F8912C16CF71
S1130470222733272C193D0936952795369527953C
S1130480ABE7B4E10E94FC0296958795C80ED91E8D
S1130490882799278C199D098B3FEFEF9E073CF421
S11304A0C3CFE114F10419F2C12CD12CCCCF06979F
S11304B00CF4BDCFE12CF12CB4CF50985898519A3C
S11304C059980E94DD0208958DE3809365008FEFB3
S11304D08093640094B114B895B185B997B19078BC
S11304E097B998B19F6798B99AB11AB89BB18BB96B
S11304F08DB1807F8DB98EB18F608EB940E060E898
S113050081E690E00E948D0213BE15BE0E94940203
S11305100E94B6020E945D0208952FB7F894FC0170
S1130520608340832FBF0895E4E6F0E080818F7DEF
S1130530808381E084BD80E0089584B584BD0895FE
S113054086BD089588BD08951F920F920FB60F922D
S113055011248F93A89A809103018F5F80930301E4
S11305608F910F900FBE0F901F901895E4E6F0E066
S113057080818F7B808381E08093B00080E0089548
S1130580E0EBF0E08081808308958093B2000895C9
S11305908093B30008951F920F920FB60F92112407
S11305A08F93B89A809102018F5F809302018F919B
S11305B00F900FBE0F901F901895E4E6F0E0808135
S11305C08D7F80831092C50083E38093C4001092D2
S11305D0C00088E98093C10080E00895E0ECF0E079
S11305E080818823ECF78091C6000895EE0FFF1FE9
S11305F00590F491E02D0994A29FB001B39FC0012E
S1130600A39F700D811D1124911DB29F700D811D3A
S10D06101124911D0895F894FFCF02
S9030000FC
